{
  "contractName": "SimpleStorage",
  "abi": [
    {
      "inputs": [],
      "name": "read",
      "outputs": [
        {
          "internalType": "uint256",
          "name": "",
          "type": "uint256"
        }
      ],
      "stateMutability": "view",
      "type": "function",
      "constant": true
    },
    {
      "inputs": [
        {
          "internalType": "uint256",
          "name": "newValue",
          "type": "uint256"
        }
      ],
      "name": "write",
      "outputs": [],
      "stateMutability": "nonpayable",
      "type": "function"
    }
  ],
  "bytecode": "0x608060405234801561001057600080fd5b50610238806100206000396000f3fe608060405234801561001057600080fd5b50600436106100365760003560e01c80632f048afa1461003b57806357de26a414610057575b600080fd5b610055600480360381019061005091906100fe565b610075565b005b61005f61007f565b60405161006c919061013a565b60405180910390f35b8060008190555050565b60008060654244604051602001610097929190610176565b6040516020818303038152906040528051906020012060001c6100ba91906101d1565b90508091505090565b600080fd5b6000819050919050565b6100db816100c8565b81146100e657600080fd5b50565b6000813590506100f8816100d2565b92915050565b600060208284031215610114576101136100c3565b5b6000610122848285016100e9565b91505092915050565b610134816100c8565b82525050565b600060208201905061014f600083018461012b565b92915050565b6000819050919050565b61017061016b826100c8565b610155565b82525050565b6000610182828561015f565b602082019150610192828461015f565b6020820191508190509392505050565b7f4e487b7100000000000000000000000000000000000000000000000000000000600052601260045260246000fd5b60006101dc826100c8565b91506101e7836100c8565b9250826101f7576101f66101a2565b5b82820690509291505056fea2646970667358221220a1cd6e4d8ef979d73e3275ec29908d490c9d0ae2cf486c4f6026a0672407d1da64736f6c63430008120033",
  "immutableReferences": {},
  "source": "// SPDX-License-Identifier: MIT\npragma solidity >=0.4.22 <0.9.0;\n\ncontract SimpleStorage {\n  uint256 value;\n  function read() public view returns (uint256) {\n    uint256 randomnumber = uint256(keccak256(abi.encodePacked(block.timestamp, block.difficulty))) % 101;\n    return randomnumber;\n}\n\n   function write(uint256 newValue) public {\n     value = newValue;\n   }\n\n\n\n}\n",
  "sourcePath": "C:\\Users\\Annanya\\Desktop\\MP\\bcs\\otp_dapp\\truffle\\contracts\\SimpleStorage.sol",
  "compiler": {
    "name": "solc",
    "version": "0.8.18+commit.87f61d96.Emscripten.clang"
  },
  "schemaVersion": "3.4.16",
  "updatedAt": "2024-04-18T09:01:36.177Z",
  "networkType": "ethereum",
  "devdoc": {
    "kind": "dev",
    "methods": {},
    "version": 1
  },
  "userdoc": {
    "kind": "user",
    "methods": {},
    "version": 1
  }
}